:1018DA004D6F6E0054756500576564005468750055
:1018EA00467269005361740053756E0020202020EF
:1018FA00002020002020200057656C636F6D652151
:10190A00004D6F64656C31204D6F64656C32005414
:10191A003A00423A0054483A00544C3A00252E32D2
:10192A00660050004F00212121002D2D2D0020207E
:10193A0020202D20202D20200020203A20203A206F
:02194A0020007B
:031DFF00012714A5
:10140A00121517E527FB7A00754B027D017F011241
:10141A001C83E508FB3395E0FA754B027D037F01D7
:10142A00121C83E509FB3395E0FA754B027D067FB2
:10143A0001121C83E50AFB3395E0FA754B027D091C
:10144A007F01121C83E50BFB3395E0FA754B027D95
:10145A00017F02121C83E50CFB3395E0FA754B02FF
:10146A007D047F02121C83E50DFB3395E0FA754B70
:10147A00027D077F02121C83AF0EEF3395E04F7097
:10148A00087BFF7A1879DA807CAF0EEF3395E0FE9D
:10149A00EF64014E70087BFF7A1879DE8067AF0E21
:1014AA00EF3395E0FEEF64024E70087BFF7A1879FD
:1014BA00E28052AF0EEF3395E0FEEF64034E700800
:1014CA007BFF7A1879E6803DAF0EEF3395E0FEEFA9
:1014DA0064044E70087BFF7A1879EA8028AF0EEF11
:1014EA003395E0FEEF64054E70087BFF7A1879EEBB
:1014FA008013AF0EEF3395E0FEEF64064E700D7B5E
:0D150A00FF7A1879F27D0E7F01121CA722D6
:10067400AF3F7E00EF6402700B052DE52D75F0078A
:100684008485F02DEF64034E60030207D6740825B9
:100694002DF806AF08EF3395E0FED3EF9463EE64D4
:1006A4008094804005E4F5080527AF09EF3395E011
:1006B400FED3EF940CEE648094804003750901AF7F
:1006C40009EF3395E0FEEF64014E6024EF64034EBE
:1006D400601EEF64054E6018EF64074E6012EF640D
:1006E400084E600CEF640A4E6006EF640C4E701402
:1006F400AF0AEF3395E0FED3EF941FEE648094804D
:10070400407C8077AF09EF3395E0FEEF64044E60E0
:1007140012EF64064E600CEF64094E6006EF640B42
:100724004E7014AF0AEF3395E0FED3EF941EEE64DF
:1007340080948040498044AF09EF3395E0FEEF6434
:10074400024E703AE50875F00412054FAFF0EF332E
:1007540095E04F7014AF0AEF3395E0FED3EF941D8C
:10076400EE6480948040178012AF0AEF3395E0FE68
:10077400D3EF941CEE648094804003750A01AF0BA0
:10078400EF3395E0FED3EF9417EE6480948040033A
:10079400E4F50BAF0CEF3395E0FED3EF943BEE643E
:1007A4008094804003E4F50CAF0DEF3395E0FED365
:1007B400EF943BEE648094804003E4F50DAF0EEFBC
:1007C4003395E0FED3EF9406EE648094804003E416
:1007D400F50EE53F640460030209637408252DF8EF
:1007E40016AF08EF3395E0C3648094805005750814
:1007F400631527AF09EF3395E0FEC3EF9401EE6470
:10080400809480500375090CAF09EF3395E0FEEF37
:1008140064014E6024EF64034E601EEF64054E6075
:1008240018EF64074E6012EF64084E600CEF640A20
:100834004E6006EF640C4E702DAF0AEF3395E0FE68
:10084400C3EF9401EE648094805003750A1FAF0ACD
:10085400EF3395E0FED3EF941FEE64809480500351
:10086400020923020920AF09EF3395E0FEEF640487
:100874004E6012EF64064E600CEF64094E6006EFA2
:10088400640B4E7029AF0AEF3395E0FEC3EF940179
:10089400EE648094805003750A1EAF0AEF3395E02E
:1008A400FED3EF941EEE648094804073806EAF0993
:1008B400EF3395E0FEEF64024E7064E50875F004D2
:1008C40012054FAFF0EF3395E04F7029AF0AEF33C5
:1008D40095E0FEC3EF9401EE648094805003750AA2
:1008E4001DAF0AEF3395E0FED3EF941DEE648094C0
:1008F40080402C8027AF0AEF3395E0FEC3EF9401CC
:10090400EE648094805003750A1CAF0AEF3395E0BF
:10091400FED3EF941CEE648094804003750A01AF0B
:100924000BEF3395E0C3648094805003750B17AFCD
:100934000CEF3395E0C3648094805003750C3BAF97
:100944000DEF3395E0C3648094805003750D3BAF85
:100954000EEF3395E0C3648094805003750E06E572
:100964002D7015E52F6401700F7BFF7A1879F67DE1
:10097400017F01121CA78020E527FB7A00754B023A
:100984007D017F01121C83E508FB3395E0FA754B6A
:10099400027D037F01121C83E52D64017015E52F90
:1009A4006401700F7BFF7A1879FB7D067F01121CAE
:1009B400A78011E509FB3395E0FA754B027D067FAC
:1009C40001121C83E52D64027015E52F6401700F7C
:1009D4007BFF7A1879FB7D097F01121CA78011E542
:1009E4000AFB3395E0FA754B027D097F01121C83E3
:1009F400E52D64037015E52F6401700F7BFF7A18F1
:100A040079FB7D017F02121CA78011E50BFB339556
:100A1400E0FA754B027D017F02121C83E52D64040C
:100A24007015E52F6401700F7BFF7A1879FB7D0444
:100A34007F02121CA78011E50CFB3395E0FA754B7D
:100A4400027D047F02121C83E52D64057015E52FD9
:100A54006401700F7BFF7A1879FB7D077F02121CFB
:100A6400A78011E50DFB3395E0FA754B027D077FF6
:100A740002121C83E52D6406700FE52F64017009D2
:100A84007BFF7A1879FE020B1AAF0EEF3395E04F15
:100A940070087BFF7A1879DA807CAF0EEF3395E02B
:100AA400FEEF64014E70087BFF7A1879DE8067AF31
:100AB4000EEF3395E0FEEF64024E70087BFF7A1868
:100AC40079E28052AF0EEF3395E0FEEF64034E708F
:100AD400087BFF7A1879E6803DAF0EEF3395E0FE90
:100AE400EF64044E70087BFF7A1879EA8028AF0E11
:100AF400EF3395E0FEEF64054E70087BFF7A1879BA
:100B0400EE8013AF0EEF3395E0FEEF64064E700DEA
:0E0B14007BFF7A1879F27D0E7F01121CA7225A
:100F9100121D84121DDC7BFF7A1979027D017F010C
:100FA100121CA77BFF7A19790B7D017F02121CA706
:100FB1007FF47E01121DC7121E4C8F41EF64016048
:100FC100030211EC121E0C7FE87E03121DC7E4FF21
:100FD100121B908F407F01121B908F26AF40EF3381
:100FE10095E0FED3EF947DEE64809480501FAF2690
:100FF100EF3395E0FEC3EF94C9EE6480947F400D1A
:10100100D3E5266480F8E540648098500675401465
:1010110075260F121DDC7BFF7A1979197D017F017D
:10102100121CA77BFF7A19791C7D0A7F01121CA76C
:101031007BFF7A19791F7D017F02121CA77BFF7A42
:101041001979237D097F02121CA7E540FB3395E046
:10105100FA754B037D047F02121A66E526FB339570
:10106100E0FA754B037D0C7F02121A66121E528F35
:101071003F121E0C121BC08F3E8E3D8D3C8C3B756A
:101081004AFF754B19754C278F508E4F8D4E8C4DE5
:101091007B007A007930120B7E7B007A0079307DFB
:1010A100037F01121CA7E53A7BFF60067A19792CB0
:1010B10080047A19792E7D0C7F01121CA7E53F70FF
:1010C10003021194FF7E00640170170540AD40EDED
:1010D1003395E0FCD3ED947DEC64809480400375FE
:1010E100407DEF64024E70111540D3E5266480F80F
:1010F100E54064809850020540E53F6403701105A6
:1011010026C3E5406480F8E52664809840021526F0
:10111100AF3F7E00EF640470171526AD26ED3395C1
:10112100E0FCC3ED94C9EC6480947F50037526C93B
:10113100EF64054E700CE53A70047F0180027F0078
:101141008F3AE53F640670030211ECE540FB3395ED
:10115100E0FA754B037D047F02121A66E526FB3324
:1011610095E0FA754B037D0C7F02121A66E540FD8E
:101171003395E0FCE4FF121C5F7F057E00121DC762
:10118100E526FD3395E0FC7F01121C5F7F057E00A3
:10119100121DC7AC40EC120131AB3EAA3DA93CA8DF
:1011A1003B1200AE600F400DE53A60277FC87E001C
:1011B100121CEC801EAC26EC120131AB3EAA3DA9FB
:1011C1003CA83B1200AE5013E53A60077F647E00F5
:1011D100121CEC7BFF7A19793080067BFF7A197932
:1011E100347D0E7F01121CA702106DE5416402607F
:1011F10003020F91121DDC121E5E7BFF7A197938F2
:101201007D017F01121CA77BFF7A1979437D017F44
:1012110002121CA77F02121B908F087F03121B90E2
:101221008F097F04121B908F0A7F05121B908F0B71
:101231007F06121B908F0C7F07121B908F0E1216C8
:10124100F1121E528F3FEF6401701AAF2EFEEF7044
:1012510007752E01F52D8016EF64014E7010F52EE5
:101261001216F18009E53F64067003020F91E52E25
:101271001460080470CB12140A80C612067480C16F
:03000B0002185880
:10185800C0E0C0F0C083C082C0D075D000C000C056
:0D18680001C002C003C004C005C006C007D7
:10187500758A18758CFC0523E5237002052205255C
:10188500E52570020524C3E5239414E52294004060
:101895000C752200752300121AB0121609C3E5252E
:1018A50094F4E52494014012752400752500E52F74
:0A18B50070047F0180027F008F2F76
:1018BF00D007D006D005D004D003D002D001D0007D
:0B18CF00D0D0D082D083D0F0D0E03227
:101C5F008F478C488D49121E437FA0121B2D121ED9
:101C6F0019AF47121B2D121E19AF49121B2D121E31
:041C7F001902000343
:021B90008F477D
:101B9200121E437FA0121B2D121E19AF47121B2DBE
:101BA200121E19121E437FA1121B2D121E19121B87
:0D1BB200EB8F487F01121E25120003AF4883
:011BBF002203
:101DC700EF1FAC0670011E4C600A7D027CEFDCFE43
:041DD700DDFC80ECC3
:011DDB0022E5
:0D1E0C00121D4A7FCC121CCA7F44021CCA62
:101BC000121D4A7FCC121CCA7FBE121CCA121C39BD
:101BD0008F47121C39EFFEE547FFFDAC06EC120102
:0B1BE0002CE4FBFA7980784102001130
:091E4300D2A0D2A1C2A0C2A122CA
:07000300C2A0D2A1D2A0228D
:021B2D00AD0702
:101B2F00E4FBEBC394087480948050237E00748090
:101B3F00A803088006CEA2E713CE13D8F8FFEDF561
:0F1B4F0082EF558224FF92A0D2A1C2A10B80D3B6
:011B5E002264
:101BEB00E4FFD2A0FEEEC39408748094805017D209
:101BFB00A130A00DA8067480088002C313D8FC4244
:061C0B0007C2A10E80DFFC
:011C110022B0
:0A1E2500EF24FF92A0D2A1C2A12277
:0B1E1900D2A0D2A1A2A0E433FFC2A11E
:011E2400229B
:051E4C00E4AF1BF51BD3
:011E5100226E
:101D9B00E4FF20B1010F20B0027F0220B2027F03CB
:051DAB0020B3027F04DB
:011DB0002210
:101AB00085191A121D9B8F19AF1A7E00EF640170F1
:101AC00007E5197003751B01EF64024E7007E519F5
:101AD0007003751B02E51A64037007E5197003753E
:0F1AE0001B03E51A64047007E5197003751B04F6
:011AEF0022D4
:061DF000C2A58F80D2A7FE
:081DF6007F027EEFDEFEDFFC40
:011DFE0022C2
:0A1E2F00C2A6121DF0C2A7021DF6A4
:101D0E00CFCDCFCECCCE1205DB7C007D0A1205DB0B
:041D1E00ED2430FF81
:0A1D2200D2A6121DF0C2A7021DF6A2
:101D2C00AE07EEFB7A0064017004ED148009EB64DD
:0E1D3C00024A7009ED243F4480FF121E2F2240
:101DDC007F38121E2F7F0C121E2F7F06121E2F7F94
:041DEC0001021E2FA3
:0A1E3900AC03121D2CAF04021D22A1
:061CA7008B478A488949C1
:101CAD00121D2CE4FDAB47AA48A9498D827583000E
:0C1CBD0012058AFF6006121D220D80E94E
:011CC90022F8
:0A1B5F00EF24FFFDEE34FFFC7F0AC7
:081B69008E4E8F4F8C508D5100
:101B71007F017E00E4FBEBC39551E5506480F8746E
:0E1B81008098500AAC4EAD4F1205C90B80E89B
:011B8F002233
:041C83008A498B4AB5
:101C8700121D2CAA4BEAFF7E00D394007480948027
:0F1C9700400D121B5FAC49AD4A121D0E1A80E6BC
:011CA600221B
:041A66008B828A8362
:101A6A00121D2CC3E58364809480400D7F2B121DC8
:101A7A002285834C85824D80107F2D121D22C3E45E
:101A8A009582F54DE49583F54CAA4BEAFF7E00D387
:101A9A00940074809480400D121B5FAC4CAD4D12C3
:051AAA001D0E1A80E68C
:011AAF002214
:041A1B008A118B128F
:101A1F00121D2CAA13EAD39400748094804037EAE5
:101A2F0024FFFDE434FFFC7F107E00121B69AC1114
:101A3F00AD12CFCDCFCECCCE1205DBEF540FFEC300
:101A4F00940A74809480EE5004243080022437FF6F
:061A5F00121D221A80BFD7
:011A6500225E
:041AF0008A168B17B0
:101AF400121D2CAA18EAFF7E00D3940074809480EF
:101B04004026EF24FFFDEE34FFFC7F02121B69AC7C
:101B140016AD17CFCDCFCECCCE1205DBEF540124BA
:081B240030FF121D221A80CDD2
:011B2C002296
:101D4A00C2AFD2B7C2B77FF7DFFED2B77F20DFFEBE
:0D1D5A00A2B7E433FE7FF7DFFED2AFAF0685
:011D67002259
:101DB100C2AFC2B77E04DEFEEF24FF92B77E18DE0B
:051DC100FED2B7D2AF15
:011DC60022FA
:101D6800C2AFC2B77F02DFFED2B77F02DFFEA2B7E3
:0B1D7800E433FE7F18DFFED2AFAF06A1
:011D8300223D
:021CCA00AD0764
:101CCC00E4FCECC39408748094805013A804740151
:0F1CDC00088002C333D8FC5DFF121DB10C80E3FA
:011CEB0022D6
:101C3900E4FDFCECC39408748094805016121D686E
:101C4900EF600DA8047401088002C333D8FC420573
:051C59000C80E0AF0566
:011C5E002263
:101D84005389F0438901758A18758CFCC28DD28CF5
:071D9400D2A9D2AFC2B922AF
:051E5200E4AF1EF51EC7
:011E57002268
:10128100E4F5467590FFC2932097137F14FE121D5B
:10129100C73097FD7F147E00121DC7754601209649
:1012A100147F147E00121DC73096FD7F147E00123C
:1012B1001DC77546052095147F147E00121DC73089
:1012C10095FD7F147E00121DC77546092094147F79
:1012D100147E00121DC73094FD7F147E00121DC7BD
:1012E10075460D7590FFC2922097147F147E0012EF
:1012F1001DC73097FD7F147E00121DC77546022061
:1013010096147F147E00121DC73096FD7F147E0057
:10131100121DC77546062095147F147E00121DC745
:101321003095FD7F147E00121DC775460A20941466
:101331007F147E00121DC73094FD7F147E00121DA4
:10134100C775460E7590FFC2912097147F147E00D9
:10135100121DC73097FD7F147E00121DC77546030D
:101361002096147F147E00121DC73096FD7F147ED7
:1013710000121DC77546072095147F147E00121DAB
:10138100C73095FD7F147E00121DC775460B209452
:10139100147F147E00121DC73094FD7F147E00124D
:1013A1001DC775460F7590FFC2902097147F147E5C
:1013B10000121DC73097FD7F147E00121DC77546B0
:1013C100042096147F147E00121DC73096FD7F14F1
:1013D1007E00121DC77546082095147F147E0012E9
:1013E1001DC73095FD7F147E00121DC775460C2068
:1013F10094147F147E00121DC73094FD7F147E006B
:08140100121DC7754610AF462D
:0114090022C0
:10160900851C1D1212818F1CAF1D7E00EF640170B5
:1016190007E51C7003751E01EF64024E7007E51C97
:101629007003751E02E51D64037007E51C700375E0
:101639001E03AF1D7E00EF64047007E51C7003757F
:101649001E04EF64054E7007E51C7003751E05E561
:101659001D64067007E51C7003751E06AF1D7E002C
:10166900EF64077007E51C7003751E07EF64084EE9
:101679007007E51C7003751E08E51D64097007E510
:101689001C7003751E09AF1D7E00EF640A7007E523
:101699001C7003751E0AEF640B4E7007E51C70037E
:1016A900751E0BE51D640C7007E51C7003751E0C97
:1016B900AF1D7E00EF640D7007E51C7003751E0DEC
:1016C900EF640E4E7007E51C7003751E0EE51D6470
:1016D9000F7007E51C7003751E0FE51D6410700778
:0716E900E51C7003751E10E3
:0116F00022D7
:051E5800007FF7DFFE32
:011E5D002262
:041CEC00AD07AC068E
:101CF000E4FBFAED25E0FFEC33FEC3EB9FEA9E50D8
:0D1D00000CB2A5121E580BBB00010A80E6B4
:011D0D0022B3
:091E0200070817081C000000018C
:051E5E00C2B5C2B6226E
:06194C0025F0FDEC3EFC5D
:061952008C478D48AB0735
:10195800D2B5E4FDEDC394087480948050227E00D3
:101968007401A805088005C333CE33CED8F9FFEB40
:10197800F582EF558224FF92B4D2B6C2B60D80D458
:10198800E4FDEDC394087480948050247E007401B3
:10199800A805088005C333CE33CED8F9FFE5475EE6
:1019A800FEE5485F4E24FF92B4D2B6C2B60D80D28F
:0219B800C2B5B6
:0119BA00220A
:0219BB00AD0776
:1019BD00E4F9430501D2B5FBEBC394087480948020
:1019CD0050227E007401A803088005C333CE33CEA8
:1019DD00D8F9FFEDF582EF558224FF92B4C2B6D24D
:1019ED00B60B80D4E4FBEBC394087480948050173D
:1019FD00D2B6C2B630B40DA8037401088002C33349
:0D1A0D00D8FC42010B80DFC2B5C2B4AF01AE
:011A1A0022A9
:1016F100E50875F00A8475F010A4FFAEF0E50875F1
:10170100F00A847C00EF7F8C12194CE50975F00A10
:101711008475F010A4FFAEF0E50975F00A847C0031
:10172100EF7F8812194CE50A75F00A8475F010A450
:10173100FFAEF0E50A75F00A847C00EF25F0FDECC0
:101741003EFC7F86121952E50B75F00A8475F01084
:10175100A4FFAEF0E50B75F00A847C00EF25F0FDE7
:10176100EC3EFC7F84121952E50C75F00A8475F089
:1017710010A4FFAEF0E50C75F00A847C00EF25F0B3
:10178100FDEC3EFC7F82121952E50D75F00A84755D
:10179100F010A4FFAEF0E50D75F00A847C00EF2592
:1017A100F0FDEC3EFC7F80121952E50E75F00A84C3
:1017B10075F010A4FFAEF0E50E75F00A847C00EF21
:0B17C10025F0FDEC3EFC7F8A0219526F
:101517007F8C1219BBEFC4540F75F00AA4FEEF5469
:101527000F2EF5087F881219BBEFC4540F75F00A08
:10153700A4FEEF540F2EF5097F861219BBEFC45492
:101547000F75F00AA4FEEF540F2EF50A7F841219C7
:10155700BBEFC4540F75F00AA4FEEF540F2EF50B22
:101567007F821219BBEFC4540F75F00AA4FEEF5423
:101577000F2EF50C7F801219BBEFC4540F75F00ABC
:10158700A4FEEF540F2EF50D7F8A1219BBEFC4543A
:101597000F75F00AA4FEEF540F2EF50EE508FD7C3B
:1015A700007F02121C5F7F057E00121DC7E509FD43
:1015B7007C007F03121C5F7F057E00121DC7E50AB2
:1015C700FD7C007F04121C5F7F057E00121DC7E5AE
:1015D7000BFD7C007F05121C5F7F057E00121DC777
:1015E700E50CFD7C007F06121C5F7F057E00121D47
:1015F700C7E50EFD7C007F07121C5F7F057E00029A
:021607001DC7FD
:10000E000201A4EC5D046005E85904700302019A34
:10001E00120165580460F6EC4860F2EC7004FDFEC7
:10002E00FF22C860DB2481C85009C39860025006C5
:10003E000201A19850CAF582E9294B4A7005AB829C
:10004E0002019075F0007C1A7880C3EF9BEE9AED5A
:10005E0099400DC3EF9BFFEE9AFEED99FDE842F03D
:10006E00DC23ACF0D0E0FFD0E0FED0E0FDAB822090
:10007E00E7101BEB60BAEC2CFCEF33FFEE33FEED1A
:10008E0033FD02017CE803F830E705C0F075F0009F
:10009E00EF2FFFEE33FEED33FD40B830E7C280AAFE
:1000AE0074F8CC6480CCC86480C8F58204604FC3F9
:1000BE00EB9FF5F0EA9E42F0E99D42F0E89C45F098
:1000CE00603C501DE5825FFFE582D313CB5BCBF422
:1000DE002B5582FB50280ABA002409B9002008804B
:1000EE001DE5825BFBE582D313CF5FCFF4C3132FE5
:1000FE005582FF50090EBE00050DBD00010CC3EB6D
:10010E009FF5F0EA9E42F0E99D42F0E89C45F060D2
:09011E0007CC4820E701B3EC22F4
:1001270075F020800E75F010800575F0087D007E53
:10013700007F003392D530D503120630EC334010E0
:10014700EF33FFEE33FEED33FDEC33FCD5F0ED225C
:0E015700E5F0247EA2D513CC92E7CDCEFF2298
:100B2200E55E244AF8E6055E227847300702784AF5
:100B3200E475F00112063E0205712000EB7F2ED211
:100B4200008018EF540F2490D43440D4FF30040BAB
:100B5200EF24BFB41A0050032461FFE55F60021561
:100B62005F0562E5627002056130070D7847E47542
:100B7200F00112063EEF0205B7021C127403D207FF
:100B82008003E4C207F55E8B478A488949E4F55F32
:100B9200F561F562E55F60077F20120B5D80F575F8
:100BA20060FFC201C200C202C203C205C206C2087D
:100BB200120B2BFF700D3007057F00120B6EAF6218
:100BC200AE6122B4255FC2D5C204120B2BFF24D022
:100BD200B40A00501A75F00A785F30D50508B6FFDE
:100BE2000106C6A426F620D5047002D20380D924B9
:100BF200CFB41A00EF5004C2E5D204020E5BD20158
:100C020080C6D20080C0D20280BCD2D580BAD205C2
:100C120080B47F20120B5D2002077401B55F004093
:100C2200F1120B22FF120B5D020B96D208D2068044
:100C320095120B22FB120B22FA120B22F94A4B706D
:100C42000679527A0F7BFF20022EE55F602A7E0032
:100C52008E8275830012058A60060EEE656070F062
:100C6200C2D5EBC0E0EAC0E0E9C0E0EE120EBBD0B4
:100C7200E0F9D0E0FAD0E0FB120571FF60AAEBC008
:100C8200E0EAC0E0E9C0E0120B5DD0E02401F9D057
:100C9200E03400FAD0E0FBE5600460DCD560D98086
:100CA20087D20280A2120E9E60F7E56070010412E4
:100CB20001AFA960600DE560600914F560120F458F
:100CC200EF60F3EA30E702F404C3995077EAF425BF
:100CD200600430E701E404F560800D120E9E60C1ED
:100CE200EA056025601201AFEA785DF630E701E4BB
:100CF200256004D5600420050114120EBBE4C0E097
:100D0200120F45785DE6601320E70714F6120B45D3
:100D1200802204F6D0E014C0E07F00120B45E560AB
:100D22006007120B3C1560800B300503120B3CD0A0
:100D3200E0020B96D0E00480C5120E9E60A0E56032
:100D4200041201AF785DEAF6E56020050260010455
:050D52002404120EBB99
:100D570074FF04C0E0120F45120B45E56020050241
:100D67006003120B3CD0E0B560E87F45120B4F786B
:100D77005DE67F2B30E7047F2DF404C0E0120B5DA6
:100D8700D0E075F00A84C0F0120B46D0E0120B4693
:100D9700020B96791080027908C206C2088008D231
:100DA700D5790A8004790AC2D5E560047002F56036
:100DB700E4FAFDFEFF120B22FC7B08200113120B45
:100DC70022FD7B1030000A120B22FE120B22FF7B42
:100DD70020EC3382D592D55013C3E43000069FFF31
:100DE700E49EFEE42001039DFDE49CFCE4CBF8C2F5
:100DF70001EC700CCFCECDCCE824F8F870F3801757
:100E0700C3EF33FFEE33FEED33FDEC33FCEB33FB87
:100E1700994002FB0FD8E9EB300105F8D0E0C44850
:100E2700B201C0E00AEC4D4E4F78207B0070C2EA59
:100E3700B5600040BCC0E0120EBDD0F0D0E020018C
:100E470004C4C0E0C4B201C0F0120B46D0F0D5F024
:100E5700EB020B9612064E0C33530D9A580C044CAA
:100E67000C00420D9E4F0DA6440DA6490C19430DCB
:100E7700AC550CDD460D3B450CA7470F72500C08CF
:100E87002D0C0C2E0C2F2B0C10230C2D200F5B2A56
:100E97000BC84800000C27E560B4FF037560061215
:100EA7000B22FC120B22FD120B22FE120B22FF78E3
:100EB700560201DE790AA2D5200314300509B910BC
:100EC700020404B9080104A2D52006025001042037
:100ED70002689202B55F005034C0E07F20300319EA
:100EE7007F30A20272067205500F120F14C202C29F
:100EF70006C205C2087F30800F300503E9C0E01243
:100F07000B5D300503D0E0F9D0E0B55FCC300517B5
:100F17007F30B9100C120B5D7F583004077F788043
:100F270003B90803120B5D3002057F2D020B5D7FAD
:100F3700202008F87F2B2006F322920280CF7F0023
:100F4700B4070050052456F8E6FF22286E756C6C2E
:100F57002900D201120B223001F8C201785F30D587
:100F67000108F6020BC82D50434958120B222403DF
:100F7700B405004001E4900F6D93120B4E743A12C2
:0A0F87000B4ED203755F04020D9AB1
:10016500E9D2E7C933E833F892D5EDD2E7CD33ECE0
:0701750033FC5002B2D52259
:10017C00EC30E7100FBF000C0EBE00080DBD0004E4
:10018C000BEB6014A2D5EB13FCED92E7FD2274FF90
:10019C00FCFDFEFF22E480F8A2D574FF13FC7D80E9
:0301AC00E480EFFD
:1001AF00F920E72824F950037907E4F42402FB1817
:1001BF00DBFDE624FB5014E9600DE4F618E604F6C7
:0F01CF00B40A08E4F6D9F57401F60A22C2D52263
:1001DE00ED33EC3392D5FA602AB4FF33EDC2E77BF0
:1001EE00FF60067A027903E4227A02790C20D504A4
:1001FE007A027907224E614E002B494E46002D4958
:10020E004E4600E47A08F608DAFC7B00740722E812
:10021E00C0E0ECC0E0EDC0E0EEC0E0EFC0E0EA759B
:10022E00F010A4CAABF075F04DA42BFBE435F0FC36
:10023E00EA2410FAEB34C5FBEC34D9FCEDC2E7FF2F
:10024E0075F056A4F42411C5F0F434C58FF0A42A29
:10025E00E5F03BE43CF620E71412050FD0E0FFD0AA
:10026E00E0FED0E0FDD0E0FC1200118014F4041288
:10027E00050FD0E0FFD0E0FED0E0FDD0E0FC120391
:10028E00D9D0E0F8E6FAEDD2E7CD33EC332482FB99
:10029E00E4C3CF33CFCE33CECD33CD33DBF37B07B9
:1002AE0075F00A846004F6081B0AE5F0F6088FF074
:1002BE00740AA4FFACF08EF0740AA42CFEACF050BD
:1002CE00010C8DF0740AA42CFDE435F0F608DBDE8B
:0302DE0074072280
:1002E10002019AE86480F8E933E83360110460F0B0
:1002F100ED33EC337009E8FCE9FDEAFEEBFF220483
:1003010060DED3EB9FEA9EE99DE8C2E78CF0C2F77D
:1003110095F0400CE8CCF8E9CDF9EACEFAEBCFFB49
:1003210012016585D0F05804700320D5B3E804703C
:10033100075002B2D50201A492D5EC0460F7E4CCD7
:10034100C0E0C398F8603B94186008400DD0E0FB12
:1003510002017CE4FBFAC9FC8028E830E406E4C928
:10036100FBE4CAFCE830E305E4C9CACBFCE8540766
:100371006010F8C3E913F9EA13FAEB13FBEC13FC71
:10038100D8F130F52FC3E49CFCEF9BFFEE9AFEED14
:1003910099FDD0E0FBEF4E4D4C701222DB030201C0
:1003A100A1EC2CFCEF33FFEE33FEED33FDED30E736
:1003B100EB02017CEF2BFFEE3AFEED39FDD0E0FBC5
:1003C10050130BBB00030201A4ED13FDEE13FEEF6E
:0803D10013FFEC13FC02017C98
:1003D900EC4D6011E8497017ED33EC3304600DE41E
:1003E900FCFFFEFD22E933E8330470F802019A129A
:1003F900016558046009E4CC24815006285009029B
:1004090001A42840030201A1C0E0EB4A7044B9806D
:1004190006D0E0FB020190EF4E701CBD8008EBFF97
:10042900EAFEE9FD80EBE98DF0A4FEE5F00204C2E5
:10043900E9CDF9EAFEEBFFEF89F0A4FCE5F0CE89FE
:10044900F0A42EFFE435F0CD89F0A42DFEE435F0BB
:100459008067EF4E7005BD80D780C3EF8BF0A4ACE9
:10046900F0EE8BF0A42CFCE435F0F8EF8AF0A42C24
:10047900E5F038FCE433CB8DF0A42CFCE5F03BF837
:10048900EE8AF0A42CFCE5F038F8E433CF89F0A427
:100499002CFCE5F038CF3400CE89F0A42FFFE5F02D
:1004A9003EFEE433C98DF0A42EFEE5F039CD8AF085
:1004B900A42FFFE5F03EFEE43DFD33D0E0FB5007FD
:1004C9000BBB000F0201A4EC2CFCEF33FFEE33FE53
:0604D900ED33FD02017C81
:1004DF003F8000004120000042C80000447A000025
:1004EF00461C400047C35000497424004B189680A7
:1004FF004CBEBC205A0E1BCA6753C21C749DC5AE9E
:10050F00FB60065407601C232312053DEB54386033
:10051F00091205291205381203D9ECF8EDF9EEFA94
:10052F00EFCB22EB12053880F1543803241C9004D2
:10053F00DFFE93FC0EEE93FD0EEE930ECE93FF2295
:030000000217CC18
:0C17CC00787FE4F6D8FD758162021813E6
:10054F00C2D530F707B2D563F0FF05F030E70CB234
:10055F00D5F4048463F0FF05F080018430D502F4F4
:02056F00042264
:10057100BB010689828A83E0225002E722BBFE0288
:09058100E32289828A83E49322BB
:10058A00BB010CE58229F582E5833AF583E0225026
:10059A0006E92582F8E622BBFE06E92582F8E22270
:0D05AA00E58229F582E5833AF583E493228A
:1005B700BB010689828A83F0225002F722BBFE0123
:0205C700F3221D
:1005C900EF8DF0A4A8F0CF8CF0A428CE8DF0A42E46
:0205D900FE2200
:1005DB00BC000BBE0029EF8DF084FFADF022E4CC04
:1005EB00F875F008EF2FFFEE33FEEC33FCEE9DECCD
:1005FB00984005FCEE9DFE0FD5F0E9E4CEFD22ED13
:10060B00F8F5F0EE8420D21CFEADF075F008EF2F5C
:10061B00FFED33FD4007985006D5F0F222C398FD4D
:05062B000FD5F0EA22EA
:0E063000C3E49FFFE49EFEE49DFDE49CFC22DB
:10063E00FAE6FB0808E6F925F0F618E6CA3AF622BD
:10064E00D083D082F8E4937012740193700DA3A33B
:10065E0093F8740193F5828883E47374029368604F
:06066E00EFA3A3A380DF4F
:101C1200EFB40A07740D121C1D740A309811A899AA
:101C2200B8130CC2983098FDA899C298B811F63032
:071C320099FDC299F599220A
:1017D800020F91E493A3F8E493A34003F68001F287
:1017E80008DFF48029E493A3F85407240CC8C33312
:1017F800C4540F4420C8834004F456800146F6DFE1
:10180800E4800B0102040810204080901DFFE47E54
:10181800019360BCA3FF543F30E509541FFEE493D5
:10182800A360010ECF54C025E060A840B8E493A39C
:10183800FAE493A3F8E493A3C8C582C8CAC583CAC7
:10184800F0A3C8C582C8CAC583CADFE9DEE780BE7F
:011E0B0000D6
:00000001FF
